:020000040800F2
:1000000000500020A9140008F1120008F91200089D
:100010000113000809130008111300080000000074
:10002000000000000000000000000000191300089C
:100030002513000800000000311300083D130008DC
:10004000F1140008F1140008F1140008F11400087C
:10005000F1140008F1140008F1140008F11400086C
:10006000F1140008F1140008F1140008F11400085C
:10007000F1140008F1140008F1140008F11400084C
:10008000F1140008F1140008F1140008F11400083C
:10009000F1140008F1140008F1140008F11400082C
:1000A000F1140008F1140008F1140008F11400081C
:1000B000F1140008F1140008F1140008F11400080C
:1000C000F1140008F1140008F1140008F1140008FC
:1000D000F1140008F114000849130008F114000895
:1000E000F1140008F1140008F114000800000000E9
:1000F0000000000000000000000000000000000000
:0C01000000000000000000005FF808F1A3
:10010C0010B5054C237833B9044B13B10448AFF345
:10011C0000800123237010BD680000200000000047
:10012C008849000808B5034B1BB103490348AFF3DA
:10013C00008008BD000000006C0000208849000809
:10014C00034613F8012B002AFBD1181A013870470B
:10015C00B0B582B000AF78600B467B807B681B68C3
:10016C000B4A93420FD10B4B01221A700A4A0B4BCC
:10017C0014461D460FCD0FC42B682360142207496B
:10018C00074802F0B9FD00BF0837BD46B0BD00BF3F
:10019C000044004086000020E4000020D000002035
:1001AC008801002080B582B000AF7860786803F0D9
:1001BC0023FC034618460837BD4680BDB0B500AFDA
:1001CC0001F092F900F0B2FE00F068FF00F006FFBB
:1001DC0000F03AFF00F0E8FE1422A949A94802F009
:1001EC008BFD0123A84AA949A94803F04BFB022324
:1001FC003322F821A64803F05AFB02233622192198
:10020C00A34803F054FB02232A220421A04803F044
:10021C004EFB0223302204219D4803F048FB0223AD
:10022C003F22F6219A4803F042FB02233922F8219F
:10023C00974803F03CFB02233C22F821944803F03E
:10024C0036FB944B01221A70934B01221A70934B7C
:10025C0000221A70924B00221A70924B00221A70D4
:10026C008C4B1B78013B032B00F2318601A252F818
:10027C0023F000BF910200084F040008490B00084E
:10028C00750E0008864B1B7883F00103DBB2002B44
:10029C0000F09480824B01221A70834A834B1446DF
:1002AC001D460FCD0FC40FCD0FC40FCD0FC495E855
:1002BC000F0007C423707C48FFF742FF03469AB235
:1002CC007B4B79496F4802F08CFC774A794B14468A
:1002DC001D460FCD0FC40FCD0FC40FCD0FC495E825
:1002EC000F0007C423707048FFF72AFF03469AB229
:1002FC006F4B6D49634802F074FC6B4A6E4B1446AD
:10030C001D460FCD0FC40FCD0FC40FCD0FC495E8F4
:10031C0003002060043421806348FFF711FF03467B
:10032C009AB2634B6049574802F05BFC5E4A614BE2
:10033C0014461D460FCD0FC40FCD0FC40FCD0FC4E7
:10034C0095E80F0007C423705748FFF7F9FE0346E2
:10035C009AB2574B54494B4802F043FC524A574B04
:10036C0014461D460FCD0FC40FCD0FC40FCD0FC4B7
:10037C0095E8070003C422704B48FFF7E1FE0346E3
:10038C009AB24B4B48493F4802F02BFC464A494B2A
:10039C0014461D460FCD0FC40FCD0FC40FCD0FC487
:1003AC0095E80F0007C423703F48FFF7C9FE0346CA
:1003BC009AB23F4B3C49334802F013FC374B1B7845
:1003CC00002B00F086853E4B1B78312B0DD1334B27
:1003DC0000221A7014220021294803F0ACFC2D4B8A
:1003EC0002221A702E4B00221A70354B1B78322BBE
:1003FC000DD12A4B00221A7014220021204803F040
:10040C009AFC244B03221A70254B00221A702C4B99
:10041C001B78332B40F05D85204B00221A70142280
:10042C000021174803F087FC14220021244803F014
:10043C0082FC184B04221A70194B00221A7000F01F
:10044C0048BD154B1B78013B0A2B00F23B8301A2E4
:10045C0052F823F0D104000855050008D305000814
:10046C0051060008CF060008990700081708000875
:10047C00950800081309000891090008650A00088E
:10048C00D000002088010020000C01403001002029
:10049C00D001002084000020850000208600002070
:1004AC0087000020F900002088000020A4490008E3
:1004BC0040420F00E4490008244A00085C4A000846
:1004CC00E40000209E4B1B7883F00103DBB2002B71
:1004DC0019D09B4B01221A709A4A9B4B14461D460D
:1004EC000FCD0FC495E80F0007C4238002341B0CFA
:1004FC0023709448FFF724FE03469AB2934B91491C
:10050C00934802F06EFB934B1B78002B00F0DC82BF
:10051C00904B00221A709048FFF712FE0346DAB295
:10052C008E4B1A708C48FFF73DFE03468C4A1360C5
:10053C00142200218B4803F0FEFB8B4B02221A7015
:10054C007F4B00221A70BFE27D4B1B7883F00103B6
:10055C00DBB2002B16D07A4B01221A70794A834BEE
:10056C0014461D460FCD0FC40FCD0FC42B6823703E
:10057C007448FFF7E5FD03469AB2744B7149744811
:10058C0002F02FFB734B1B78002B00F09F82714BFA
:10059C0000221A707048FFF7D3FD0346DAB26F4B96
:1005AC001A706D48FFF7FEFD0346714A1360142262
:1005BC0000216C4803F0BFFB6B4B03221A70604B9D
:1005CC0000221A7082E25E4B1B7883F00103DBB2CF
:1005DC00002B16D05A4B01221A705A4A654B1446FE
:1005EC001D460FCD0FC40FCD0FC42B68237055487B
:1005FC00FFF7A6FD03469AB2544B5249544802F0F9
:10060C00F0FA544B1B78002B00F06282514B002205
:10061C001A705148FFF794FD0346DAB24F4B1A702B
:10062C004D48FFF7BFFD0346534A136014220021C7
:10063C004C4803F080FB4C4B04221A70404B0022B8
:10064C001A7045E23E4B1B7883F00103DBB2002BA2
:10065C0016D03B4B01221A703A4A484B14461D46A1
:10066C000FCD0FC40FCD0FC42B6823603548FFF797
:10067C0067FD03469AB2354B3249354802F0B1FA60
:10068C00344B1B78002B00F02582324B00221A7061
:10069C003148FFF755FD0346DAB2304B1A702E483D
:1006AC00FFF780FD0346364A1360142200212D48C3
:1006BC0003F041FB2C4B05221A70214B00221A70BF
:1006CC0008E21F4B1B7883F00103DBB2002B16D022
:1006DC001B4B01221A701B4A2A4B14461D460FCD88
:1006EC000FC40FCD0FC42B6823601648FFF728FDED
:1006FC0003469AB2154B1349154802F072FA154B82
:10070C001B78002B00F0E881124B00221A70124863
:10071C00FFF716FD0346DAB2104B1A700E48FFF7BE
:10072C0041FD0346184A1360142200210D4803F0C2
:10073C0002FB0D4B06221A70014B00221A70CBE102
:10074C008700002088000020984A000840420F00D3
:10075C008801002086000020E4000020F800002022
:10076C0000010020D000002085000020B84A0008BD
:10077C00FC000020DC4A000804010020004B0008AB
:10078C0008010020244B00080C0100209F4B1B7813
:10079C0083F00103DBB2002B16D09C4B01221A70A4
:1007AC009B4A9C4B14461D460FCD0FC495E80F0079
:1007BC0084E80F009648FFF7C3FC03469AB2964BA9
:1007CC009349964802F00DFA954B1B78002B00F0DC
:1007DC008581934B00221A709248FFF7B1FC0346B7
:1007EC00DAB2914B1A708F48FFF7DCFC03468F4A44
:1007FC001360142200218E4803F09DFA8D4B0722C2
:10080C001A70824B00221A7068E1804B1B7883F0BF
:10081C000103DBB2002B16D07C4B01221A707C4AF0
:10082C00854B14461D460FCD0FC40FCD0FC42B683E
:10083C0023807748FFF784FC03469AB2764B7449C1
:10084C00764802F0CEF9764B1B78002B00F04881ED
:10085C00734B00221A707348FFF772FC0346DAB22E
:10086C00714B1A706F48FFF79DFC0346734A136077
:10087C00142200216E4803F05EFA6E4B08221A70A7
:10088C00624B00221A702BE1604B1B7883F0010342
:10089C00DBB2002B16D05D4B01221A705C4A684B00
:1008AC0014461D460FCD0FC40FCD0FC42B682370FB
:1008BC005748FFF745FC03469AB2574B54495748E3
:1008CC0002F08FF9564B1B78002B00F00B81544B28
:1008DC0000221A705348FFF733FC0346DAB2524B2E
:1008EC001A705048FFF75EFC0346564A13601422F8
:1008FC0000214F4803F01FFA4E4B09221A70434B4C
:10090C0000221A70EEE0414B1B7883F00103DBB23E
:10091C00002B16D03D4B01221A703D4A4A4B14460F
:10092C001D460FCD0FC40FCD0FC42B682360384864
:10093C00FFF706FC03469AB2374B3549374802F0AD
:10094C0050F9374B1B78002B00F0CE80344B002233
:10095C001A703448FFF7F4FB0346DAB2324B1A70C4
:10096C003048FFF71FFC0346384A1360142200215D
:10097C002F4803F0E0F92F4B0A221A70234B002268
:10098C001A70B1E0214B1B7883F00103DBB2002B12
:10099C001AD01E4B01221A701D4A2D4B14461D46AF
:1009AC000FCD0FC40FCD0FC42B681A462280023412
:1009BC001B0C23701648FFF7C3FB03469AB2164B69
:1009CC001349164802F00DF9154B1B78002B00F05B
:1009DC008D80134B00221A701248FFF7B1FB0346AF
:1009EC00DAB2114B1A700F48FFF7DCFB0346194AB9
:1009FC001360142200210E4803F09DF90D4B0B22BD
:100A0C001A70024B00221A7070E000BF87000020A1
:100A1C0088000020484B000840420F00880100204D
:100A2C0086000020E4000020F800002014010020C3
:100A3C00D000002085000020684B00081001002029
:100A4C008C4B000818010020B04B00081C01002042
:100A5C00D44B000820010020264B1B7883F00103A7
:100A6C00DBB2002B44D0244B1B68244A1268194675
:100A7C00234803F00BF9234B1B68234A12681946D1
:100A8C00224803F003F9224B1B68224A12681946CC
:100A9C00214803F0FBF8214B1B68214A12681946C8
:100AAC00204803F0F3F8204B1B68204A12681946C3
:100ABC001F4803F0EBF81F4B01221A701E4B01224A
:100ACC001A7015E000BF07E200BF05E200BF03E2A9
:100ADC0000BF01E200BFFFE100BFFDE100BFFBE191
:100AEC0000BFF9E100BFF7E100BFF5E100BFF3E1A2
:100AFC0000BFF1E18700002000010020140100205C
:100B0C00F84B0008FC00002010010020284C0008C5
:100B1C000401002018010020584C00080801002096
:100B2C001C010020884C00080C0100202001002032
:100B3C00B84C00088500002084000020AD4803F06C
:100B4C00A5F803220A21AC4802F007FF03466422F1
:100B5C0003FB02F2A94B1B6892FBF3F3A84A126841
:100B6C0092B202FB03F31946A64803F08FF8032256
:100B7C000D21A14802F0F1FE0346642203FB02F2B0
:100B8C00A14B1B6892FBF3F3A04A126892B202FBD2
:100B9C0003F319469E4803F079F802220121964886
:100BAC0002F0DBFE0346642203FB02F2994B1B6846
:100BBC0092FBF3F3984A126892B202FB03F31946C4
:100BCC00964803F063F8022204218B4802F0C5FE1C
:100BDC000346642203FB02F2914B1B6892FBF3F376
:100BEC00904A126892B202FB03F319468E4803F046
:100BFC004DF802220721804802F0AFFE0346642222
:100C0C0003FB02F2894B1B6892FBF3F3884A1268D0
:100C1C0092B202FB03F31946864803F037F803221D
:100C2C000B21754802F099FE0346642203FB02F285
:100C3C00724B1B6892FBF3F3714A126892B202FB7F
:100C4C0003F319467C4803F021F803220E216A486D
:100C5C0002F083FE0346642203FB02F26A4B1B681C
:100C6C0092FBF3F3694A126892B202FB03F3194642
:100C7C00724803F00BF8022202215F4802F06DFE6D
:100C8C000346642203FB02F2624B1B6892FBF3F3F4
:100C9C00614A126892B202FB03F31946684802F0EB
:100CAC00F5FF02220521544802F057FE0346642248
:100CBC0003FB02F25A4B1B6892FBF3F3594A12687E
:100CCC0092B202FB03F319465E4802F0DFFF0222E8
:100CDC000821494802F041FE0346642203FB02F25C
:100CEC00524B1B6892FBF3F3514A126892B202FB0F
:100CFC0003F31946544802F0C9FF03220C213E4865
:100D0C0002F02BFE0346642203FB02F23B4B1B68F2
:100D1C0092FBF3F33A4A126892B202FB03F31946C0
:100D2C004A4802F0B3FF03220F21334802F015FEAC
:100D3C000346642203FB02F2334B1B6892FBF3F372
:100D4C00324A126892B202FB03F31946404802F091
:100D5C009DFF02220321284802F0FFFD0346642276
:100D6C0003FB02F22B4B1B6892FBF3F32A4A12682B
:100D7C0092B202FB03F31946364802F087FF0222B7
:100D8C0006211D4802F0E9FD0346642203FB02F232
:100D9C00234B1B6892FBF3F3224A126892B202FBBC
:100DAC0003F319462C4802F071FF02220921124864
:100DBC0002F0D3FD0346642203FB02F21B4B1B68BB
:100DCC0092FBF3F31A4A126892B202FB03F3194630
:100DDC00224802F05BFF02221021074802F0BDFD01
:100DEC00034619461E4802F051FF1E4B01221A7091
:100DFC0072E000BFE84C0008D0010020FC0000208D
:100E0C0010010020EC4C000800010020140100200F
:100E1C00104D00080401002018010020344D00087A
:100E2C00080100201C010020584D00080C01002076
:100E3C0020010020884D0008B84D0008DC4D00084A
:100E4C00004E0008244E0008544E0008844E000842
:100E5C00A84E0008CC4E0008F04E0008204F0008A9
:100E6C00504F0008840000201E4B1B7883F00103B8
:100E7C00DBB2002B2FD01C4B1B681C4A1268194686
:100E8C001B4802F003FF1B4B1B681B4A12681946D8
:100E9C001A4802F0FBFE1A4B1B681A4A12681946D4
:100EAC00194802F0F3FE194B1B68194A12681946CF
:100EBC00184802F0EBFE184B1B68184A12681946CA
:100ECC00174802F0E3FE174B01221A7003E000BF33
:100EDC0002E000BF00E000BF134800F02BFFFFF75B
:100EEC00BFB900BF870000200001002014010020C2
:100EFC00F84B0008FC00002010010020284C0008D2
:100F0C000401002018010020584C000808010020A2
:100F1C001C010020884C00080C010020200100203E
:100F2C00B84C0008840000202401002080B590B04B
:100F3C0000AF07F1180328220021184602F0FBFE2F
:100F4C003B1D00221A605A609A60DA601A610A230B
:100F5C00BB610123BB621023FB6201233B630023B3
:100F6C007B6307F11803184600F0F4FE0346002BD0
:100F7C0001D000F0E3F80F237B600023BB6000235B
:100F8C00FB6000233B6100237B613B1D0021184665
:100F9C0001F062F90346002B01D000F0CFF800BF3E
:100FAC004037BD4680BD000080B500AF094B0A4AF2
:100FBC001A60084B00225A60064B40F6FF729A608A
:100FCC00044800F073FE0346002B01D000F0B6F885
:100FDC0000BF80BD240100200030004080B500AF70
:100FEC00174B184A1A60164B4FF482725A60144B06
:100FFC0000229A60124B0022DA60114B00221A6117
:10100C000F4B01225A610E4B4FF400729A610C4B3C
:10101C002822DA610A4B00221A62094B00225A621A
:10102C00074B00229A62064B0A22DA62044801F04E
:10103C00A1FA0346002B01D000F080F800BF80BD60
:10104C00300100200030014080B500AF114B124A36
:10105C001A60104B4FF4E1325A600E4B00229A602A
:10106C000C4B0022DA600B4B00221A61094B0C224C
:10107C005A61084B00229A61064B0022DA6105483E
:10108C0001F05FFD0346002B01D000F057F800BFC4
:10109C0080BD00BF880100200044004080B586B0B0
:1010AC0000AF07F1080300221A605A609A60DA60F8
:1010BC00174B9B69164A43F004039361144B9B69CD
:1010CC0003F004037B607B68114B9B69104A43F06F
:1010DC00080393610E4B9B6903F008033B603B686C
:1010EC00002201210B4800F0C9FD0123BB60112334
:1010FC00FB6000233B6102237B6107F10803194667
:10110C00044800F037FC00BF1837BD4680BD00BF57
:10111C0000100240000C014080B582B000AF786036
:10112C00391D64230122044801F05BFD7B681846DD
:10113C000837BD4680BD00BF8801002080B400AFD9
:10114C0072B600BF00BFFDE780B485B000AF154B91
:10115C009B69144A43F001039361124B9B6903F0A2
:10116C000103BB60BB680F4BDB690E4A43F0805335
:10117C00D3610C4BDB6903F080537B607B680A4BBB
:10118C005B68FB60FB6823F0E063FB60FB6843F08B
:10119C000073FB60044AFB68536000BF1437BD4604
:1011AC0080BC7047001002400000014080B588B040
:1011BC0000AF786007F1100300221A605A609A6041
:1011CC00DA607B681B681B4A93422FD11A4B9B69D0
:1011DC00194A43F480539361174B9B6903F4805372
:1011EC00FB60FB68144B9B69134A43F00403936147
:1011FC00114B9B6903F00403BB60BB68A0233B61EC
:10120C0002237B610323FB6107F1100319460B4892
:10121C0000F0B0FB40233B6100237B610023BB61EA
:10122C0007F110031946054800F0A4FB00BF203756
:10123C00BD4680BD00300140001002400008014056
:10124C0080B588B000AF786007F1100300221A60F7
:10125C005A609A60DA607B681B681F4A934237D1E8
:10126C001E4BDB691D4A43F40033D3611B4BDB6916
:10127C0003F40033FB60FB68184B9B69174A43F07F
:10128C0004039361154B9B6903F00403BB60BB68BB
:10129C0004233B6102237B610323FB6107F11003F1
:1012AC0019460F4800F066FB08233B6100237B6165
:1012BC000023BB6107F110031946094800F05AFBE3
:1012CC0000220021262000F06CFA262000F085FA7E
:1012DC0000BF2037BD4680BD0044004000100240D6
:1012EC000008014080B400AF00BFFDE780B400AF40
:1012FC0000BFFDE780B400AF00BFFDE780B400AFD6
:10130C0000BFFDE780B400AF00BFFDE780B400AFC5
:10131C0000BFBD4680BC704780B400AF00BFBD4667
:10132C0080BC704780B400AF00BFBD4680BC704726
:10133C0080B500AF00F01EF900BF80BD80B500AFD6
:10134C00024801F037FD00BF80BD00BF88010020BE
:10135C0080B586B000AFF860B9607A6000237B611D
:10136C000AE0AFF300800146BB685A1CBA60CAB2EF
:10137C001A707B6901337B617A697B689A42F0DB76
:10138C007B6818461837BD4680BD80B586B000AF67
:10139C00F860B9607A6000237B6109E0BB685A1C75
:1013AC00BA601B781846FFF7B7FE7B6901337B6187
:1013BC007A697B689A42F1DB7B6818461837BD4620
:1013CC0080BD80B483B000AF78604FF0FF33184617
:1013DC000C37BD4680BC704780B483B000AF7860DA
:1013EC0039603B684FF400525A60002318460C37A2
:1013FC00BD4680BC704780B483B000AF78600123D9
:10140C0018460C37BD4680BC704780B485B000AF21
:10141C00F860B9607A60002318461437BD4680BC6A
:10142C007047000080B586B000AF7860144A154B49
:10143C00D31A7B617B693B61134B1B68002B02D178
:10144C00114B124A1A60104B1A687B6813443A69A4
:10145C009A4207D202F0BEFC03460C221A604FF0EF
:10146C00FF3309E0084B1B68FB60074B1A687B686D
:10147C001344054A1360FB6818461837BD4680BDF7
:10148C000050002000040000DC010020300300208C
:10149C0080B400AF00BFBD4680BC7047FFF7F8FFBB
:1014AC000B480C490C4A002302E0D458C4500433B6
:1014BC00C4188C42F9D3094A094C002301E013608B
:1014CC000432A242FBD302F08BFCFEF777FE70478E
:1014DC000000002068000020E05000086800002098
:1014EC0030030020FEE7000080B500AF084B1B68FE
:1014FC00074A43F010031360032000F047F90F2054
:10150C0000F008F8FFF720FE0023184680BD00BF4E
:10151C000020024080B582B000AF7860124B1A6890
:10152C00124B1B7819464FF47A73B3FBF1F3B2FBF1
:10153C00F3F3184600F05FF90346002B01D00123AA
:10154C000EE07B680F2B0AD8002279684FF0FF3031
:10155C0000F027F9064A7B681360002300E00123A2
:10156C0018460837BD4680BD00000020080000204A
:10157C000400002080B400AF054B1B781A46054BC5
:10158C001B681344034A136000BFBD4680BC704700
:10159C0008000020E001002080B400AF024B1B6863
:1015AC001846BD4680BC7047E001002080B584B071
:1015BC0000AF7860FFF7F0FFB8607B68FB60FB68FA
:1015CC00B3F1FF3F05D00A4B1B781A46FB68134456
:1015DC00FB6000BFFFF7E0FF0246BB68D31AFA6856
:1015EC009A42F7D800BF00BF1037BD4680BD00BF80
:1015FC000800002080B485B000AF78607B6803F0F1
:10160C000703FB600C4BDB68BB60BA684FF6FF034B
:10161C001340BB60FB681A02BB68134343F0BF6303
:10162C0043F40033BB60044ABB68D36000BF14377B
:10163C00BD4680BC704700BF00ED00E080B400AF39
:10164C00044BDB681B0A03F007031846BD4680BC3D
:10165C00704700BF00ED00E080B483B000AF0346DC
:10166C00FB7197F90730002B0BDBFB7903F01F02A2
:10167C00064997F907305B09012000FA02F241F89C
:10168C00232000BF0C37BD4680BC704700E100E052
:10169C0080B483B000AF03463960FB7197F9073013
:1016AC00002B0ADB3B68DAB20C4997F907301201C0
:1016BC00D2B20B4483F800230AE03B68DAB2084943
:1016CC00FB7903F00F03043B1201D2B20B441A76E0
:1016DC0000BF0C37BD4680BC704700BF00E100E086
:1016EC0000ED00E080B489B000AFF860B9607A60BA
:1016FC00FB6803F00703FB61FB69C3F10703042BD1
:10170C0028BF0423BB61FB690433062B02D9FB6998
:10171C00033B00E000237B614FF0FF32BB6902FA10
:10172C0003F3DA43BB681A407B699A404FF0FF31F0
:10173C007B6901FA03F3D9437B680B4013431846CA
:10174C002437BD4680BC704780B582B000AF78604E
:10175C007B68013BB3F1807F01D301230FE00A4A80
:10176C007B68013B53600F214FF0FF30FFF790FF78
:10177C00054B00229A60044B07221A60002318467E
:10178C000837BD4680BD00BF10E000E080B582B0D8
:10179C0000AF78607868FFF72DFF00BF0837BD46B3
:1017AC0080BD80B586B000AF0346B9607A60FB732C
:1017BC0000237B61FFF742FF78617A68B96878692A
:1017CC00FFF790FF024697F90F3011461846FFF7C6
:1017DC005FFF00BF1837BD4680BD80B582B000AF3B
:1017EC000346FB7197F907301846FFF735FF00BF2A
:1017FC000837BD4680BD80B582B000AF7860786890
:10180C00FFF7A2FF034618460837BD4680BD80B4DB
:10181C0085B000AF78600023FB737B6893F82130B0
:10182C00DBB2022B08D07B6804229A637B6800220F
:10183C0083F82020012320E07B681B681A687B68F2
:10184C001B6822F00E021A607B681B681A687B68A2
:10185C001B6822F001021A607B681A6C7B68DB6BD8
:10186C00012101FA02F25A607B68012283F82120DF
:10187C007B68002283F82020FB7B18461437BD467A
:10188C0080BC704780B584B000AF78600023FB73D8
:10189C007B6893F82130DBB2022B05D07B680422E5
:1018AC009A630123FB7351E07B681B681A687B68A1
:1018BC001B6822F00E021A607B681B681A687B6832
:1018CC001B6822F001021A607B681B68224A934253
:1018DC0029D07B681B68214A934222D07B681B6805
:1018EC001F4A93421AD07B681B681E4A934212D03F
:1018FC007B681B681C4A93420AD07B681B681B4A96
:10190C00934202D14FF480130EE04FF080730BE042
:10191C004FF4803308E04FF4805305E04FF48073AC
:10192C0002E0102300E00123114A53607B6801227E
:10193C0083F821207B68002283F820207B685B6B76
:10194C00002B03D07B685B6B78689847FB7B184651
:10195C001037BD4680BD00BF080002401C0002408D
:10196C003000024044000240580002406C0002402B
:10197C000000024080B48BB000AF78603960002367
:10198C007B6200233B6269E101227B6A02FA03F36A
:10199C00FB613B681B68FA691340BB61BA69FB6960
:1019AC009A4240F058813B685B689A4A93425ED0F9
:1019BC00984A934275D8984A934258D0964A934283
:1019CC006FD8964A934252D0944A934269D8944A1B
:1019DC0093424CD0924A934263D8924A934246D057
:1019EC00904A93425DD8122B2AD8122B59D801A2B7
:1019FC0052F823F07B1A0008551A0008671A0008E1
:101A0C00A91A0008AF1A0008AF1A0008AF1A00088C
:101A1C00AF1A0008AF1A0008AF1A0008AF1A000876
:101A2C00AF1A0008AF1A0008AF1A0008AF1A000866
:101A3C00AF1A0008AF1A00085D1A0008711A0008E6
:101A4C00794A934213D02CE03B68DB683B6229E077
:101A5C003B68DB6804333B6224E03B68DB6808339B
:101A6C003B621FE03B68DB680C333B621AE03B686F
:101A7C009B68002B02D104233B6213E03B689B68FC
:101A8C00012B05D108233B627B68FA691A6109E0D6
:101A9C0008233B627B68FA695A6103E000233B62CE
:101AAC0000E000BFBB69FF2B01D87B6801E07B68BD
:101ABC0004337B61BB69FF2B02D87B6A9B0002E07D
:101ACC007B6A083B9B003B617B691A680F213B6971
:101ADC0001FA03F3DB431A40396A3B6901FA03F359
:101AEC001A437B691A603B685B6803F08053002BD8
:101AFC0000F0B1804D4B9B694C4A43F0010393615C
:101B0C004A4B9B6903F00103BB60BB68484A7B6A84
:101B1C009B08023352F82330FB607B6A03F003030B
:101B2C009B000F2202FA03F3DB43FA681340FB60BD
:101B3C007B68404A934213D07B683F4A93420DD056
:101B4C007B683E4A934207D07B683D4A934201D161
:101B5C00032306E0042304E0022302E0012300E057
:101B6C0000237A6A02F0030292009340FA6813434E
:101B7C00FB602F497B6A9B080233FA6841F82320EB
:101B8C003B685B6803F48013002B06D02D4B9A68DE
:101B9C002C49BB6913438B6006E02A4B9A68BB69DE
:101BAC00DB43284913408B603B685B6803F40013EC
:101BBC00002B06D0234BDA682249BB691343CB6058
:101BCC0006E0204BDA68BB69DB431E491340CB604F
:101BDC003B685B6803F40033002B06D0194B5A6842
:101BEC001849BB6913434B6006E0164B5A68BB6936
:101BFC00DB43144913404B603B685B6803F4803350
:101C0C00002B21D00F4B1A680E49BB6913430B6094
:101C1C0021E000BF00003210000031100000221043
:101C2C0000002110000012100000111000100240E2
:101C3C000000014000080140000C01400010014070
:101C4C0000140140000401400B4B1A68BB69DB43D4
:101C5C00094913400B607B6A01337B623B681A684D
:101C6C007B6A22FA03F3002B7FF48EAE00BF00BF19
:101C7C002C37BD4680BC70470004014080B483B053
:101C8C0000AF78600B467B8013467B707B78002B13
:101C9C0003D07A887B681A6103E07B881A047B681E
:101CAC001A6100BF0C37BD4680BC704780B584B04C
:101CBC0000AF78607B68002B01D1012336E07B6894
:101CCC001B684CF6CC421A607B681B6845F2555277
:101CDC001A607B681B687A6852685A607B681B685C
:101CEC007A6892689A60FFF757FCF86011E0FFF78A
:101CFC0053FC0246FB68D31A41F23C32934208D99A
:101D0C007B681B68DB6803F00303002B01D0032303
:101D1C000CE07B681B68DB6803F00303002BE6D147
:101D2C007B681B684AF6AA221A60002318461037F3
:101D3C00BD4680BD80B483B000AF78607B681B6803
:101D4C004AF6AA221A60002318460C37BD4680BCFE
:101D5C007047000080B586B000AF78607B68002BC0
:101D6C0001D1012372E27B681B6803F00103002B95
:101D7C0000F08780924B5B6803F00C03042B0CD0B3
:101D8C008F4B5B6803F00C03082B12D18C4B5B68F8
:101D9C0003F48033B3F5803F0BD1894B1B6803F4FC
:101DAC000033002B6CD07B685B68002B68D101235F
:101DBC004CE27B685B68B3F5803F06D1804B1B68B7
:101DCC007F4A43F4803313602EE07B685B68002B02
:101DDC000CD17B4B1B687A4A23F480331360784B0D
:101DEC001B68774A23F4802313601DE07B685B68D3
:101DFC00B3F5A02F0CD1724B1B68714A43F48023AE
:101E0C0013606F4B1B686E4A43F4803313600BE016
:101E1C006B4B1B686A4A23F480331360684B1B6856
:101E2C00674A23F4802313607B685B68002B13D014
:101E3C00FFF7B2FB386108E0FFF7AEFB02463B69E7
:101E4C00D31A642B01D9032300E25D4B1B6803F406
:101E5C000033002BF0D014E0FFF79EFB386108E054
:101E6C00FFF79AFB02463B69D31A642B01D9032373
:101E7C00ECE1534B1B6803F40033002BF0D100E072
:101E8C0000BF7B681B6803F00203002B63D04C4B34
:101E9C005B6803F00C03002B0BD0494B5B6803F021
:101EAC000C03082B1CD1464B5B6803F48033002BCE
:101EBC0016D1434B1B6803F00203002B05D07B6843
:101ECC001B69012B01D00123C0E13D4B1B6823F0A2
:101EDC00F8027B685B69DB00394913430B603AE01D
:101EEC007B681B69002B20D0364B01221A60FFF750
:101EFC0053FB386108E0FFF74FFB02463B69D31AEE
:101F0C00022B01D90323A1E12D4B1B6803F0020323
:101F1C00002BF0D02A4B1B6823F0F8027B685B691E
:101F2C00DB00274913430B6015E0264B00221A6097
:101F3C00FFF732FB386108E0FFF72EFB02463B69E6
:101F4C00D31A022B01D9032380E11D4B1B6803F02C
:101F5C000203002BF0D17B681B6803F00803002BF5
:101F6C003AD07B689B69002B19D0174B01221A6061
:101F7C00FFF712FB386108E0FFF70EFB02463B69E6
:101F8C00D31A022B01D9032360E10D4B5B6A03F0DA
:101F9C000203002BF0D0012000F0CEFA1CE00A4B1B
:101FAC0000221A60FFF7F8FA38610FE0FFF7F4FA35
:101FBC0002463B69D31A022B08D9032346E100BF22
:101FCC00001002400000424280044242924B5B6A85
:101FDC0003F00203002BE9D17B681B6803F00403B8
:101FEC00002B00F0A6800023FB758B4BDB6903F004
:101FFC008053002B0DD1884BDB69874A43F080530B
:10200C00D361854BDB6903F08053BB60BB68012354
:10201C00FB75824B1B6803F48073002B18D17F4B2C
:10202C001B687E4A43F480731360FFF7B5FA38617E
:10203C0008E0FFF7B1FA02463B69D31A642B01D9C9
:10204C00032303E1754B1B6803F48073002BF0D062
:10205C007B68DB68012B06D16F4B1B6A6E4A43F021
:10206C00010313622DE07B68DB68002B0CD16A4BFB
:10207C001B6A694A23F001031362674B1B6A664AA9
:10208C0023F0040313621CE07B68DB68052B0CD186
:10209C00614B1B6A604A43F0040313625E4B1B6A7C
:1020AC005D4A43F0010313620BE05B4B1B6A5A4A17
:1020BC0023F001031362584B1B6A574A23F00403A5
:1020CC0013627B68DB68002B15D0FFF765FA38616B
:1020DC000AE0FFF761FA02463B69D31A41F28832F3
:1020EC00934201D90323B1E04B4B1B6A03F002036B
:1020FC00002BEED014E0FFF74FFA38610AE0FFF73F
:10210C004BFA02463B69D31A41F28832934201D909
:10211C0003239BE0404B1B6A03F00203002BEED120
:10212C00FB7D012B05D13C4BDB693B4A23F08053F3
:10213C00D3617B68DB69002B00F08780364B5B68D2
:10214C0003F00C03082B61D07B68DB69022B46D1B2
:10215C00334B00221A60FFF71FFA386108E0FFF7D3
:10216C001BFA02463B69D31A022B01D903236DE0FB
:10217C00294B1B6803F00073002BF0D17B681B6AA2
:10218C00B3F5803F08D1244B5B6823F400327B68A5
:10219C009B68214913434B601F4B5B6823F47412FB
:1021AC007B68196A7B685B6A0B431B4913434B6062
:1021BC001B4B01221A60FFF7EFF9386108E0FFF7BB
:1021CC00EBF902463B69D31A022B01D903233DE0FC
:1021DC00114B1B6803F00073002BF0D035E0104B53
:1021EC0000221A60FFF7D8F9386108E0FFF7D4F93C
:1021FC0002463B69D31A022B01D9032326E0064B76
:10220C001B6803F00073002BF0D11EE07B68DB69C8
:10221C00012B07D1012319E000100240007000408F
:10222C00600042420B4B5B68FB60FB6803F480323E
:10223C007B681B6A9A4206D1FB6803F470127B68B8
:10224C005B6A9A4201D0012300E00023184618373C
:10225C00BD4680BD0010024080B584B000AF7860F0
:10226C0039607B68002B01D10123D0E06A4B1B68DD
:10227C0003F007033A689A4210D9674B1B6823F0A6
:10228C00070265493B6813430B60634B1B6803F003
:10229C0007033A689A4201D00123B8E07B681B68B7
:1022AC0003F00203002B20D07B681B6803F00403AF
:1022BC00002B05D0594B5B68584A43F4E0635360DC
:1022CC007B681B6803F00803002B05D0534B5B683D
:1022DC00524A43F460535360504B5B6823F0F00256
:1022EC007B689B684D4913434B607B681B6803F00C
:1022FC000103002B40D07B685B68012B07D1474B57
:10230C001B6803F40033002B15D101237FE07B689D
:10231C005B68022B07D1414B1B6803F00073002B49
:10232C0009D1012373E03D4B1B6803F00203002B22
:10233C0001D101236BE0394B5B6823F003027B680E
:10234C005B68364913434B60FFF726F9F8600AE0E7
:10235C00FFF722F90246FB68D31A41F28832934206
:10236C0001D9032353E02D4B5B6803F00C027B680F
:10237C005B689B009A42EBD1274B1B6803F0070369
:10238C003A689A4210D2244B1B6823F00702224968
:10239C003B6813430B60204B1B6803F007033A6840
:1023AC009A4201D0012332E07B681B6803F00403DE
:1023BC00002B08D0194B5B6823F4E0627B68DB6868
:1023CC00164913434B607B681B6803F00803002B12
:1023DC0009D0124B5B6823F460527B681B69DB00ED
:1023EC000E4913434B6000F021F802460B4B5B681F
:1023FC001B0903F00F030A49CB5C22FA03F3094AC9
:10240C001360094B1B681846FFF784F80023184625
:10241C001037BD4680BD00BF0020024000100240B6
:10242C00704F0008000000200400002080B487B02A
:10243C0000AF0023FB600023BB6000237B61002303
:10244C007B6000233B611E4B5B68FB60FB6803F009
:10245C000C03042B02D0082B03D027E0194B3B6153
:10246C0027E0FB689B0C03F00F03174AD35C7B60DF
:10247C00FB6803F48033002B10D0114B5B685B0CB2
:10248C0003F00103114AD35CBB607B680D4A03FB6C
:10249C0002F2BB68B2FBF3F37B6104E07B680C4A8D
:1024AC0002FB03F37B617B693B6102E0054B3B6103
:1024BC0000BF3B6918461C37BD4680BC704700BF47
:1024CC000010024000127A00884F0008984F000854
:1024DC0000093D0080B400AF024B1B681846BD4696
:1024EC0080BC70470000002080B500AFFFF7F2FF02
:1024FC000246054B5B681B0A03F007030349CB5CE0
:10250C0022FA03F3184680BD00100240804F0008E9
:10251C0080B500AFFFF7DEFF0246054B5B68DB0AB8
:10252C0003F007030349CB5C22FA03F3184680BD82
:10253C0000100240804F000880B485B000AF786076
:10254C000A4B1B680A4AA2FB03235B0A7A6802FB4C
:10255C0003F3FB6000BFFB685A1EFA60002BF9D135
:10256C0000BF00BF1437BD4680BC70470000002080
:10257C00D34D621080B582B000AF78607B68002BC1
:10258C0001D1012376E07B685B6A002B08D17B6864
:10259C005B68B3F5827F09D07B680022DA6105E0C5
:1025AC007B6800221A617B6800225A617B680022DA
:1025BC009A627B6893F85130DBB2002B06D17B68B2
:1025CC00002283F850207868FEF7F0FD7B68022229
:1025DC0083F851207B681B681A687B681B6822F0A3
:1025EC0040021A607B685B6803F482727B689B68AC
:1025FC0003F404431A437B68DB6803F400631A4357
:10260C007B681B6903F002031A437B685B6903F068
:10261C0001031A437B689B6903F400731A437B68BC
:10262C00DB6903F038031A437B681B6A03F08003F1
:10263C0042EA03017B689B6A03F400527B681B68C7
:10264C000A431A607B689B691A0C7B681B6802F052
:10265C0004025A607B681B68DA697B681B6822F489
:10266C000062DA617B6800225A657B68012283F87C
:10267C005120002318460837BD4680BD80B58AB06E
:10268C0000AFF860B9607A607B8001237B62FEF753
:10269C0083FF3862FB6893F85130FB77FB685B680B
:1026AC00BB617B88FB82FB7F012B0CD0BB69B3F534
:1026BC00827F06D1FB689B68002B02D1FB7F042B29
:1026CC0001D002237FE1BB68002B05D07B68002B77
:1026DC0002D07B88002B01D1012374E1FB6893F8B5
:1026EC005030012B01D102236DE1FB68012283F8EC
:1026FC005020FB6893F85130DBB2042B03D0FB68FD
:10270C00052283F85120FB6800225A65FB687A6821
:10271C009A63FB687A88DA87FB687A889A87FB6801
:10272C00BA681A63FB687A88DA86FB687A889A86B4
:10273C00FB6800221A64FB6800225A64FB681B6861
:10274C001B6803F04003402B07D0FB681B681A681A
:10275C00FB681B6842F040021A60FB68DB68B3F54B
:10276C00006F7ED1FB685B68002B02D0FB8A012BCB
:10277C006CD1FB681B6B1A88FB681B68DA60FB6802
:10278C001B6B9A1CFB681A63FB68DB8E9BB2013BCC
:10279C009AB2FB68DA8659E0FB681B689B6803F009
:1027AC000203022B1BD1FB68DB8E9BB2002B16D0D5
:1027BC007B6A012B13D1FB681B6B1A88FB681B68A7
:1027CC00DA60FB681B6B9A1CFB681A63FB68DB8E78
:1027DC009BB2013B9AB2FB68DA8600237B62FB68F2
:1027EC001B689B6803F00103012B19D1FB68DB8F7D
:1027FC009BB2002B14D0FB681B68DA68FB689B6BE0
:10280C0092B21A80FB689B6B9A1CFB689A63FB68FC
:10281C00DB8F9BB2013B9AB2FB68DA8701237B62A8
:10282C00FEF7BAFE02463B6AD31A3A6B9A420DD8AF
:10283C003B6BB3F1FF3F09D0FB68012283F85120B9
:10284C00FB68002283F850200323BCE0FB68DB8E7E
:10285C009BB2002BA0D1FB68DB8F9BB2002B9BD1D2
:10286C0082E0FB685B68002B02D0FB8A012B71D1E4
:10287C00FB681A6BFB681B680C3312781A70FB68C8
:10288C001B6B5A1CFB681A63FB68DB8E9BB2013B0B
:10289C009AB2FB68DA865DE0FB681B689B6803F004
:1028AC000203022B1CD1FB68DB8E9BB2002B17D0D2
:1028BC007B6A012B14D1FB681A6BFB681B680C3309
:1028CC0012781A70FB681B6B5A1CFB681A63FB6846
:1028DC00DB8E9BB2013B9AB2FB68DA8600237B62EB
:1028EC00FB681B689B6803F00103012B19D1FB6883
:1028FC00DB8F9BB2002B14D0FB681B68DA68FB687B
:10290C009B6BD2B21A70FB689B6B5A1CFB689A6368
:10291C00FB68DB8F9BB2013B9AB2FB68DA87012321
:10292C007B62FEF739FE02463B6AD31A3A6B9A4237
:10293C0003D83B6BB3F1FF3F02D13B6B002B09D1AA
:10294C00FB68012283F85120FB68002283F8502099
:10295C00032338E0FB68DB8E9BB2002B9CD1FB6819
:10296C00DB8F9BB2002B97D13A6A396BF86800F079
:10297C00B7F80346002B08D0FB6820225A65FB6889
:10298C00002283F8502001231DE0FB689B68002B7C
:10299C000AD100233B61FB681B68DB683B61FB6869
:1029AC001B689B683B613B69FB68012283F85120E3
:1029BC00FB68002283F85020FB685B6D002B01D074
:1029CC00012300E0002318462837BD4680BD0000D7
:1029DC0080B588B000AFF860B9603B601346FB71FE
:1029EC00FEF7DAFD0246BB6A9B1A3A681344FB6198
:1029FC00FEF7D2FDB861394B1B685B011B0DFA6900
:102A0C0002FB03F37B6154E03B68B3F1FF3F50D012
:102A1C00FEF7C2FD0246BB69D31AFA699A4202D983
:102A2C00FB69002B3DD1FB681B685A68FB681B686F
:102A3C0022F0E0025A60FB685B68B3F5827F11D12B
:102A4C00FB689B68B3F5004F04D0FB689B68B3F53B
:102A5C00806F07D1FB681B681A68FB681B6822F043
:102A6C0040021A60FB689B6AB3F5005F0FD1FB68EC
:102A7C001B681A68FB681B6822F400521A60FB681A
:102A8C001B681A68FB681B6842F400521A60FB68EA
:102A9C00012283F85120FB68002283F85020032385
:102AAC0017E07B69002B01D10023FB617B69013BA3
:102ABC007B61FB681B689A68BB681340BA689A42D2
:102ACC000CBF01230023DBB21A46FB799A429BD13F
:102ADC00002318462037BD4680BD00BF00000020F3
:102AEC0080B586B002AFF860B9607A607B680093FD
:102AFC00BB6801220221F868FFF76AFF0346002B2E
:102B0C0007D0FB685B6D43F02002FB685A6503231A
:102B1C0013E07B680093BB6800228021F868FFF704
:102B2C0057FF0346002B07D0FB685B6D43F0200278
:102B3C00FB685A65032300E0002318461037BD4696
:102B4C0080BD80B582B000AF78607B68002B01D16E
:102B5C00012342E07B6893F84130DBB2002B06D1B5
:102B6C007B68002283F840207868FEF769FB7B685D
:102B7C00242283F841207B681B68DA687B681B6819
:102B8C0022F40052DA60786800F0EEFD7B681B6876
:102B9C001A697B681B6822F490421A617B681B6877
:102BAC005A697B681B6822F02A025A617B681B6891
:102BBC00DA687B681B6842F40052DA607B6800229A
:102BCC005A647B68202283F841207B68202283F89A
:102BDC0042207B6800225A63002318460837BD4602
:102BEC0080BD80B58AB002AFF860B9603B60134617
:102BFC00FB8000237B61FB6893F84130DBB2202B18
:102C0C0075D1BB68002B02D0FB88002B01D10123AE
:102C1C006EE0FB6800225A64FB68212283F8412095
:102C2C00FEF7BAFC7861FB68FA889A84FB68FA882C
:102C3C00DA84FB689B68B3F5805F08D1FB681B697D
:102C4C00002B04D10023FB61BB68BB6103E0BB68B4
:102C5C00FB610023BB612EE03B6800937B69002283
:102C6C008021F86800F053FB0346002B05D0FB686D
:102C7C00202283F8412003233AE0FB69002B0BD17F
:102C8C00BB691B881A46FB681B68C2F308025A60B2
:102C9C00BB690233BB6107E0FB691A78FB681B68F0
:102CAC005A60FB690133FB61FB68DB8C9BB2013B17
:102CBC009AB2FB68DA84FB68DB8C9BB2002BCBD11D
:102CCC003B6800937B6900224021F86800F01FFBF1
:102CDC000346002B05D0FB68202283F841200323F8
:102CEC0006E0FB68202283F84120002300E0022349
:102CFC0018462037BD4680BD80B58CB000AFF8605B
:102D0C00B9601346FB80FB6893F84230DBB2202B92
:102D1C004AD1BB68002B02D0FB88002B01D10123C8
:102D2C0043E0FB6801221A63FB6800225A63FB88AC
:102D3C001A46B968F86800F043FB034687F82F3051
:102D4C0097F82F30002B2CD1FB681B6B012B25D156
:102D5C0000233B61FB681B681B683B61FB681B68BD
:102D6C005B683B613B69FB681B680C33BB61BB69EF
:102D7C0053E8003F7B617B6943F01003BB62FB6847
:102D8C001B680C33BA6A7A623B62396A7A6A41E828
:102D9C000023FB61FB69002BE5D102E0012387F8DE
:102DAC002F3097F82F3000E0022318463037BD46FD
:102DBC0080BD000080B5BAB000AF78607B681B683E
:102DCC001B68C7F8E4307B681B68DB68C7F8E03029
:102DDC007B681B685B69C7F8DC300023C7F8D83008
:102DEC000023C7F8D430D7F8E43003F00F03C7F84A
:102DFC00D830D7F8D830002B0FD1D7F8E43003F007
:102E0C002003002B09D0D7F8E03003F02003002B6F
:102E1C0003D0786800F0EAFB5BE2D7F8D830002BDF
:102E2C0000F0DE80D7F8DC3003F00103002B06D174
:102E3C00D7F8E03003F49073002B00F0D180D7F872
:102E4C00E43003F00103002B0BD0D7F8E03003F48F
:102E5C008073002B05D07B685B6C43F001027B68B0
:102E6C005A64D7F8E43003F00403002B0BD0D7F8E6
:102E7C00DC3003F00103002B05D07B685B6C43F066
:102E8C0002027B685A64D7F8E43003F00203002B8B
:102E9C000BD0D7F8DC3003F00103002B05D07B6896
:102EAC005B6C43F004027B685A64D7F8E43003F09F
:102EBC000803002B11D0D7F8E03003F02003002BCF
:102ECC0005D1D7F8DC3003F00103002B05D07B686B
:102EDC005B6C43F008027B685A647B685B6C002B6C
:102EEC0000F0F281D7F8E43003F02003002B08D077
:102EFC00D7F8E03003F02003002B02D0786800F004
:102F0C0075FB7B681B685B6903F04003002B14BFE7
:102F1C0001230023DBB2C7F8D4307B685B6C03F071
:102F2C000803002B03D1D7F8D430002B4FD078688E
:102F3C0000F07FFA7B681B685B6903F04003002B91
:102F4C0041D07B681B681433C7F89C30D7F89C3091
:102F5C0053E8003FC7F89830D7F8983023F0400377
:102F6C00C7F8D0307B681B681433D7F8D020C7F86B
:102F7C00A820C7F8A430D7F8A410D7F8A82041E8A7
:102F8C000023C7F8A030D7F8A030002BD9D17B682C
:102F9C00DB6B002B13D07B68DB6B7E4A5A637B6840
:102FAC00DB6B1846FEF76EFC0346002B16D07B68D5
:102FBC00DB6B5B6B7A68D26B104698470EE07868D7
:102FCC0000F09CF90AE0786800F098F906E078685F
:102FDC0000F094F97B6800225A6475E100BF73E13C
:102FEC007B681B6B012B40F04F81D7F8E43003F06A
:102FFC001003002B00F04881D7F8E03003F01003E9
:10300C00002B00F041810023BB607B681B681B68B0
:10301C00BB607B681B685B68BB60BB687B681B68BC
:10302C005B6903F04003002B00F0B6807B68DB6B20
:10303C001B685B68A7F8BE30B7F8BE30002B00F0F9
:10304C0045817B689B8DB7F8BE209A4280F03E810B
:10305C007B68B7F8BE20DA857B68DB6B9B69202B1D
:10306C0000F088807B681B680C33C7F88830D7F871
:10307C00883053E8003FC7F88430D7F8843023F405
:10308C008073C7F8B8307B681B680C33D7F8B8204E
:10309C00C7F89420C7F89030D7F89010D7F8942040
:1030AC0041E80023C7F88C30D7F88C30002BD9D1ED
:1030BC007B681B6814337B677B6F53E8003F3B676F
:1030CC003B6F23F00103C7F8B4307B681B681433E3
:1030DC00D7F8B420C7F88020FB67F96FD7F88020A9
:1030EC0041E80023BB67BB6F002BE1D17B681B68F9
:1030FC0014333B663B6E53E8003FFB65FB6D23F0DE
:10310C004003C7F8B0307B681B681433D7F8B02085
:10311C00FA66BB66B96EFA6E41E800237B667B6E7D
:10312C00002BE3D17B68202283F842207B680022AD
:10313C001A637B681B680C33FB64FB6C53E8003F21
:10314C00BB64BB6C23F01003C7F8AC307B681B6806
:10315C000C33D7F8AC20BA657B65796DBA6D41E854
:10316C0000233B653B6D002BE3D17B68DB6B184682
:10317C00FEF74DFB7B6802225A637B689A8D7B6855
:10318C00DB8D9BB2D31A9BB219467868FCF7E0FF33
:10319C009CE000BF033500087B689A8D7B68DB8D53
:1031AC009BB2D31AA7F8CE307B68DB8D9BB2002B79
:1031BC0000F08E80B7F8CE30002B00F089807B6851
:1031CC001B680C33BB63BB6B53E8003F7B637B6BAF
:1031DC0023F49073C7F8C8307B681B680C33D7F89E
:1031EC00C8207A643B64396C7A6C41E80023FB6339
:1031FC00FB6B002BE3D17B681B6814337B627B6A0F
:10320C0053E8003F3B623B6A23F00103C7F8C4302C
:10321C007B681B681433D7F8C4203A63FB62F96AE5
:10322C003A6B41E80023BB62BB6A002BE3D17B689D
:10323C00202283F842207B6800221A637B681B687B
:10324C000C333B613B6953E8003FFB60FB6823F0A8
:10325C001003C7F8C0307B681B680C33D7F8C0204C
:10326C00FA61BB61B969FA6941E800237B617B694A
:10327C00002BE3D17B6802225A63B7F8CE30194693
:10328C007868FCF765FF23E0D7F8E43003F080039F
:10329C00002B09D0D7F8E03003F08003002B03D0CB
:1032AC00786800F03CF914E0D7F8E43003F0400300
:1032BC00002B0ED0D7F8E03003F04003002B08D0E1
:1032CC00786800F07BF904E000BF02E000BF00E08A
:1032DC0000BFE837BD4680BD80B483B000AF7860D6
:1032EC0000BF0C37BD4680BC704780B483B000AFC4
:1032FC00786000BF0C37BD4680BC704780B483B08B
:10330C0000AF786000BF0C37BD4680BC704780B5FD
:10331C0086B000AFF860B9603B601346FB713BE0D0
:10332C003B6AB3F1FF3F37D0FEF736F902463B68F4
:10333C00D31A3A6A9A4202D33B6A002B01D1032377
:10334C003AE0FB681B68DB6803F00403002B23D016
:10335C00BB68802B20D0BB68402B1DD0FB681B6842
:10336C001B6803F00803082B16D100237B61FB6854
:10337C001B681B687B61FB681B685B687B617B69F6
:10338C00F86800F056F8FB6808225A64FB680022C3
:10339C0083F8402001230FE0FB681B681A68BB68A8
:1033AC001340BA689A420CBF01230023DBB21A46C1
:1033BC00FB799A42B4D0002318461837BD4680BD1D
:1033CC0080B485B000AFF860B9601346FB80FB6831
:1033DC00BA689A62FB68FA889A85FB68FA88DA857B
:1033EC00FB6800225A64FB68222283F84220FB68A7
:1033FC001B69002B07D0FB681B68DA68FB681B682D
:10340C0042F48072DA60FB681B685A69FB681B68BF
:10341C0042F001025A61FB681B68DA68FB681B68A2
:10342C0042F02002DA60002318461437BD4680BCF7
:10343C00704780B495B000AF78607B681B680C3324
:10344C007B637B6B53E8003F3B633B6B23F49073D4
:10345C00FB647B681B680C33FA6C3A64FB63F96B96
:10346C003A6C41E80023BB63BB6B002BE5D17B6856
:10347C001B6814333B623B6A53E8003FFB61FB69FA
:10348C0023F00103BB647B681B681433BA6CFA62CB
:10349C00BB62B96AFA6A41E800237B627B6A002B43
:1034AC00E5D17B681B6B012B19D17B681B680C3336
:1034BC00FB60FB6853E8003FBB60BB6823F0100364
:1034CC007B647B681B680C337A6CBA617B617969AD
:1034DC00BA6941E800233B613B69002BE5D17B686D
:1034EC00202283F842207B6800221A6300BF5437E5
:1034FC00BD4680BC704780B584B000AF78607B68F7
:10350C005B6AFB60FB680022DA85FB680022DA84C8
:10351C00F868FFF7F3FE00BF1037BD4680BD80B4DE
:10352C0085B000AF78607B6893F84130DBB2212B1B
:10353C003ED17B689B68B3F5805F14D17B681B69B7
:10354C00002B10D17B681B6AFB60FB681B881A463A
:10355C007B681B68C2F308025A607B681B6A9A1C62
:10356C007B681A6208E07B681B6A591C7A681162D6
:10357C001A787B681B685A607B68DB8C9BB2013BBA
:10358C009BB27A681946D184002B0FD17B681B68DB
:10359C00DA687B681B6822F08002DA607B681B6843
:1035AC00DA687B681B6842F04002DA60002300E0B6
:1035BC00022318461437BD4680BC704780B582B0D4
:1035CC0000AF78607B681B68DA687B681B6822F048
:1035DC004002DA607B68202283F841207868FFF78C
:1035EC007BFE002318460837BD4680BD80B58CB0E5
:1035FC0000AF78607B6893F84230DBB2222B40F04E
:10360C00AE807B689B68B3F5805F17D17B681B69C4
:10361C00002B13D10023FB627B689B6ABB627B6827
:10362C001B685B689BB2C3F308039AB2BB6A1A802F
:10363C007B689B6A9A1C7B689A6226E07B689B6A13
:10364C00FB620023BB627B689B68B3F5805F07D08D
:10365C007B689B68002B0AD17B681B69002B06D109
:10366C007B681B685B68DAB2FB6A1A7008E07B68DF
:10367C001B685B68DBB203F07F03DAB2FB6A1A707B
:10368C007B689B6A5A1C7B689A627B68DB8D9BB259
:10369C00013B9BB27A681946D185002B5DD17B68C2
:1036AC001B68DA687B681B6822F02002DA607B6892
:1036BC001B68DA687B681B6822F48072DA607B68AE
:1036CC001B685A697B681B6822F001025A617B688F
:1036DC00202283F842207B6800225A637B681B6B94
:1036EC00012B35D17B6800221A637B681B680C3375
:1036FC007B617B6953E8003F3B613B6923F010031E
:10370C007B627B681B680C337A6A3A62FB61F969ED
:10371C003A6A41E80023BB61BB69002BE5D17B68A9
:10372C001B681B6803F01003102B0AD10023FB60ED
:10373C007B681B681B68FB607B681B685B68FB60B5
:10374C00FB687B689B8D19467868FCF701FD02E0ED
:10375C007868FFF7CAFD002302E0002300E0022393
:10376C0018463037BD4680BD80B584B000AF786058
:10377C007B681B681B6923F440517B68DA687B68A3
:10378C001B680A431A617B689A687B681B691A4339
:10379C007B685B691343BB607B681B68DB6823F445
:1037AC00B05323F00C037A681268B9680B43D360EA
:1037BC007B681B685B6923F440717B689A697B6842
:1037CC001B680A435A617B681B682C4A934203D1DD
:1037DC00FEF79EFEF86002E0FEF786FEF860FA68DF
:1037EC0013469B0013449A001A447B685B689B0049
:1037FC00B2FBF3F3224AA2FB03235B091901FA681B
:10380C0013469B0013449A001A447B685B689B0028
:10381C00B2FBF3F21A4BA3FB02035B09642000FB1F
:10382C0003F3D31A1B013233154AA2FB03235B09A2
:10383C0003F0F0031944FA6813469B0013449A00F2
:10384C001A447B685B689B00B2FBF3F20C4BA3FB46
:10385C0002035B09642000FB03F3D31A1B01323310
:10386C00074AA2FB03235B0903F00F027B681B686A
:10387C000A449A6000BF1037BD4680BD0038014035
:10388C001F85EB5180B485B000AFF860B9607A60E9
:10389C007B80FB68BA689A60FB687A681A60FB6880
:1038AC007A889A8000BF1437BD4680BC704780B5BB
:1038BC0088B002AFF860B96011461A460B46FB712E
:1038CC001346BB7100237B61FB7963F07F03DBB292
:1038DC003B75BB79032B12D0032B1CDC012B02D0C4
:1038EC00022B04D017E0BB68DBB27B7514E0BB681D
:1038FC001B12DBB27B75BB68DBB2BB750CE0BB6823
:10390C001B14DBB27B75BB681B12DBB2BB75BB68CF
:10391C00DBB2FB7500E000BF00233B61FB6818685D
:10392C00FB689B8800221946FEF7A8F9FB6898688B
:10393C0007F1100207F114010A2300930423FEF788
:10394C009DFEFB681868FB689B8801221946FEF7F0
:10395C0095F900BF1837BD4680BD80B586B002AF63
:10396C0078600B46FB701346BB700023FB60FB7842
:10397C003B730023BB607B6818687B689B880022C4
:10398C001946FEF77BF97B68986807F1080207F186
:10399C000C010A2300930423FEF770FE7B68186861
:1039AC007B689B8801221946FEF768F90A20FDF70F
:1039BC00FDFDBB78032B0ED0032B16DC012B02D0A4
:1039CC00022B02D011E07B7A12E07B7A1B02BA7ACE
:1039DC0013439BB20CE07B7A1A04BB7A1B02134391
:1039EC00FA7A134323F07F4302E000BF4FF0FF331A
:1039FC0018461037BD4680BD0A22002100F07AB867
:103A0C00242B2DE9F0478646904601D8012B06D190
:103A1C0000F0E0F9162303600020BDE8F0870D46A6
:103A2C0033482A4615F8014B065D16F00806F8D106
:103A3C002D2C2DD101262C78951C33F0100209D198
:103A4C00302C2AD12A7802F0DF02582A25D11023F3
:103A5C006C780235002206F1004C0CF1FF3CBCFBEB
:103A6C00F3F9104603FB19CAA4F13007092F1BD830
:103A7C003C46A34227DD571C07D0814520D301D1FA
:103A8C00A2451DDB012200FB034015F8014BEBE7BF
:103A9C002B2C04BF2C78951CCFE7002BDAD1302CC3
:103AAC000CBF08230A23D5E7A4F14107192F01D82D
:103ABC00373CDEE7A4F16107192F04D8573CD8E74F
:103ACC004FF0FF32E1E7531C08D122236046CEF8B9
:103ADC000030B8F1000FA0D0691E06E006B14042DC
:103AEC00B8F1000F99D0002AF6D1C8F8001094E76D
:103AFC009B4F000813460A46014602480068FFF730
:103B0C007FBF00BF18000020002310B50446C0E999
:103B1C000033C0E90433836081814366C2818361D1
:103B2C00194608225C3000F006F90D4B24626362E2
:103B3C000C4BA3620C4BE3620C4B23630C4B9C426F
:103B4C0006D003F16802944202D0D0339C4205D1D6
:103B5C0004F15800BDE8104000F066B910BD00BF7C
:103B6C00BD3C0008DF3C0008173D00083B3D000849
:103B7C00E4010020024A0349034800F069B800BF81
:103B8C000C000020CD4600081C00002041680C4BA6
:103B9C0010B59942044601D000F092FDA168094B82
:103BAC00994202D0204600F08BFDE168064B994209
:103BBC0004D02046BDE8104000F082BD10BD00BF0F
:103BCC00E40100204C020020B402002010B50B4B85
:103BDC000B4C0C4A20461A6004210022FFF794FF7C
:103BEC0004F1680001220921FFF78EFF04F1D000D7
:103BFC000222BDE810401221FFF786BF1C030020F3
:103C0C00E4010020813B0008014800F00EB900BF20
:103C1C0025030020014800F009B900BF250300204E
:103C2C0010B50446FFF7F0FF236A1BB1BDE8104046
:103C3C00FFF7F0BF044B2362044B1B68002BF5D13C
:103C4C00FFF7C4FFF2E700BF993B00081C030020FC
:103C5C002DE9F8430746884614460026D4E9019519
:103C6C00B9F1010905D52468002CF7D13046BDE81F
:103C7C00F883AB89012B07D9B5F90E30013303D08A
:103C8C0029463846C04706436835E9E70FB407B5FF
:103C9C00064904AB086853F8042B8168019300F0C3
:103CAC00E5F903B05DF804EB04B070471800002090
:103CBC0010B50C46B1F90E1000F068F80028ABBF37
:103CCC00636DA3891B1823F48053ACBF6365A38178
:103CDC0010BD2DE9F0411F468B890546DB050C46CE
:103CEC00164605D502230022B1F90E1000F03CF85F
:103CFC00A389324623F48053A38128463B46B4F96A
:103D0C000E10BDE8F04100F053B810B50C46B1F9F7
:103D1C000E1000F029F8431CA38915BF606523F42D
:103D2C00805343F48053A38118BFA38110BDB1F914
:103D3C000E1000F009B803460244934200D17047BC
:103D4C0003F8011BF9E7000038B50023054D0446C4
:103D5C0008462B60FDF735FB431C02D12B6803B1E1
:103D6C00236038BD2003002038B5044608461146B0
:103D7C000022054D2A601A46FDF747FB431C02D171
:103D8C002B6803B1236038BD2003002038B50446EE
:103D9C00084611460022054D2A601A46FDF7D8FA4E
:103DAC00431C02D12B6803B1236038BD20030020D3
:103DBC0038B50446084611460022054D2A601A46BD
:103DCC00FDF7E3FA431C02D12B6803B1236038BD25
:103DDC0020030020014B1868704700BF180000201A
:103DEC0070B500260C4D0D4C641BA410A64209D1D5
:103DFC0000F0C4FD00260A4D0A4C641BA410A64218
:103E0C0005D170BD55F8043B98470136EEE755F8DF
:103E1C00043B98470136F2E7D8500008D850000808
:103E2C00D8500008DC5000087047704770470000FD
:103E3C0038B50546002940D051F8043C0C1F002B26
:103E4C00B8BFE41800F0DEF81C4A136833B963609D
:103E5C0014602846BDE8384000F0DAB8A34208D90F
:103E6C00206821188B4201BF19685B680918216012
:103E7C00EDE71A465B680BB1A342FAD911685018EA
:103E8C00A0420BD120680144501883421160E0D14C
:103E9C0018685B68084410605360DAE702D90C2399
:103EAC002B60D6E7206821188B4201BF19685B682C
:103EBC000918216063605460CBE738BD2C030020E7
:103ECC0070B50F4E0C463168054611B900F0B4FCC4
:103EDC0030602146284600F0AFFC431C03D14FF064
:103EEC00FF34204670BDC41C24F00304A042F8D05B
:103EFC00211A284600F0A0FC0130F2D1EFE700BFF8
:103F0C00280300202DE9F843CD1C25F003050835C6
:103F1C000C2D38BF0C25002D064601DBA94204D917
:103F2C000C2333600020BDE8F883DFF8D48000F068
:103F3C0069F8D8F800301C4644BB29463046FFF7D8
:103F4C00BFFF431C044658D1D8F800402746002F29
:103F5C0043D1002C4BD023683946304604EB03097F
:103F6C0000F06AFC814542D1216830466D1A294621
:103F7C00FFF7A6FF01303AD023682B442360D8F812
:103F8C0000305A6862BBC8F800700FE02268521B00
:103F9C0020D40B2A17D96119A342256018BF596088
:103FAC00636808BFC8F8001062514B60304600F0DF
:103FBC002FF804F10B00231D20F00700C21A1CBFC0
:103FCC001B1AA350AFE76268A3420CBFC8F80020CD
:103FDC005A60EBE723466468AEE73C467F68B6E779
:103FEC001A465B68A342FBD100235360DEE70C2327
:103FFC003046336000F00CF894E70560D6E700BF5C
:10400C002C0300200148FFF710BF00BF2403002041
:10401C000148FFF70BBF00BF24030020936810B4C6
:10402C00013B002B936007DA9469A34201DB0A2958
:10403C0002D110BC00F06CBB1368581C10601970D6
:10404C00084610BC7047F8B506460F461446D518FE
:10405C00AC4201D1002007E03A46304614F8011B6F
:10406C00FFF7DCFF431CF3D1F8BD00002DE9F04F46
:10407C000D461446984606469DB018B1036A0BB916
:10408C00FFF7CEFD6B6ED90705D4AB899A0502D428
:10409C00A86DFFF7CAFEAB891B0701D52B699BB92D
:1040AC002946304600F072FB70B16B6EDC0704D50C
:1040BC004FF0FF301DB0BDE8F08FAB899805F7D4F9
:1040CC00A86DFFF7B3FEF3E70023099320238DF8C7
:1040DC00293030234FF00109CDF80C80DFF8A8818E
:1040EC008DF82A3023469A4613F8012B0AB1252A5B
:1040FC00F9D1BAEB040B0BD05B462246294630466D
:10410C00FFF7A1FF013000F0A780099A5A440992E9
:10411C009AF80030002B00F09F8000234FF0FF3204
:10412C00CDE905230AF1010A049307938DF8533066
:10413C001A935446052214F8011B534800F08CFBCB
:10414C00049AD8B9D10644BF20238DF853301307F5
:10415C0044BF2B238DF853309AF800302A2B15D0FE
:10416C00544600204FF00A0C079A214611F8013BE7
:10417C00303B092B4BD9B0B1079214E0A0EB0803EC
:10418C0009FA03F31343A2460493D2E7039B191DC8
:10419C001B680391002BBBBF5B4242F002020793EA
:1041AC000793B8BF049223782E2B0AD163782A2B5D
:1041BC0032D1039B02341A1D1B68039243EAE3734A
:1041CC000593DFF8C8A003225046217800F044FB89
:1041DC0038B14022049BA0EB0A0082401343013407
:1041EC00049314F8011B062229488DF8281000F0BE
:1041FC0033FB00283FD0274B1BBB039B073323F01B
:10420C00070308330393099B3B4409936AE70C4665
:10421C0001200CFB0232A8E700234FF00A0C1946D0
:10422C0001340593204610F8012B303A092A03D9A2
:10423C00002BC6D00591C4E7044601230CFB0121D9
:10424C00F0E703AB00932A463046134B04A9AFF3B7
:10425C0000800746781CD6D16B6ED90705D4AB8984
:10426C009A0502D4A86DFFF7E1FDAB895B063FF51B
:10427C001FAF09981EE703AB00932A463046064B46
:10428C0004A900F07DF8E4E79B500008A150000859
:10429C00A550000800000000534000082DE9F0472D
:1042AC00164698468A680B6907469342B8BF134670
:1042BC00336091F843200C46DDF820900AB10133AD
:1042CC0033602368990642BF336802333360256834
:1042DC0015F0060506D104F1190AE36832689B1A39
:1042EC00AB422BDC94F843302268003B18BF01230F
:1042FC00920630D44146384604F14302C847013097
:10430C0023D02368226903F00603042B14BF002575
:10431C0033684FF0000608BFE56804F11A0408BFC3
:10432C00ED1A54F8123C08BF25EAE5759342C4BF58
:10433C009B1AED18B5421AD1002008E00123524611
:10434C0041463846C847013003D14FF0FF30BDE835
:10435C00F0870135C1E73020E11881F843005A1C81
:10436C0094F845102244023382F84310C2E701232B
:10437C00224641463846C8470130E6D00136D9E7D7
:10438C002DE9FF470F7E9146782F80460C469A46C2
:10439C000C9E01F1430207D8622F0AD8002F00F0BF
:1043AC00D380582F00F0BA8004F1420684F8427092
:1043BC003AE0A7F16303152BF6D801A151F823F0CD
:1043CC002544000839440008B5430008B5430008EB
:1043DC00B5430008B543000839440008B54300084C
:1043EC00B5430008B5430008B54300083B45000839
:1043FC0063440008F5440008B5430008B5430008C1
:10440C005D450008B543000863440008B543000847
:10441C00B5430008FD44000833681A1D1B68326060
:10442C0004F1420684F8423001239EE03368206890
:10443C00191D3160060601D51D6803E04506FBD544
:10444C00B3F90050002D03DA2D236D4284F843306C
:10445C000A23594811E021683368080653F8045BB5
:10446C0002D4490648BFADB26F2F336014BF0A2384
:10447C0008235148002184F843106668002EA8BF19
:10448C002168A660A4BF21F0040121600DB9002EA3
:10449C004BD01646B5FBF3F103FB1157C75D06F87D
:1044AC00017D2F46BB420D46F4D9082B0BD1236856
:1044BC00DF0708D5236961689942DEBF302306F80F
:1044CC00013C06F1FF36921B22614B4621464046C9
:1044DC00CDF800A003AAFFF7E1FE01304AD14FF05E
:1044EC00FF3004B0BDE8F087236843F0200323605D
:1044FC007827324884F84570236831681F0651F8D4
:10450C00045B02D45F0648BFADB23160D90744BF2B
:10451C0043F0200323601DB11023ABE72648E9E7E5
:10452C00236823F020032360F6E71646BDE73368C3
:10453C002568181D616930602E061B6801D519604D
:10454C0002E06806FBD51980002316462361BCE700
:10455C00336800211A1D32601E686268304600F014
:10456C007BF908B1801B606063682361002384F8C9
:10457C004330AAE73246494640462369D0470130CA
:10458C00ADD023689B0713D4E068039B9842B8BF57
:10459C001846A6E70123324649464046D04701302B
:1045AC009DD00135E36803995B1AAB42F2DCEBE773
:1045BC00002504F11906F5E7AC500008BD500008C1
:1045CC00B1F90C20F8B5160705460C4654D44B68C7
:1045DC00002B02DC0B6C002B48DDE66A002E45D06C
:1045EC00002312F480522F68216A2B6030D0626D48
:1045FC00A389590705D56368D21A636B0BB1236C79
:10460C00D21A00232846E66A216AB047431CA389C4
:10461C0006D129681D292BD8284A0A41D60727D448
:10462C00002262602269D904226004D5421C01D1A7
:10463C002B6803B96065616B2F60B9B104F1440359
:10464C00994202D02846FFF7F3FB002363630DE089
:10465C0001232846B0470246501CC9D12B68002BB9
:10466C00C6D01D2B01D0162B1DD12F60002021E0B0
:10467C0043F040031BB21AE00F69002FF6D09307EA
:10468C0018BF00230E6808BF4B69F61B0F608B60C8
:10469C00002EEBDD33463A462846216AD4F828C072
:1046AC00E047002807DCB4F90C3043F040034FF02E
:1046BC00FF30A381F8BD0744361AE9E7FEFFBFDFE0
:1046CC0038B50B6905460C4613B90025284638BD8C
:1046DC0018B1036A0BB9FFF7A3FAB4F90C30002B2D
:1046EC00F3D0626ED00704D4990502D4A06DFFF705
:1046FC009CFB28462146FFF763FF636E0546DA07ED
:10470C00E4D4A3899B05E1D4A06DFFF78FFBDDE713
:10471C00F8B50E461446054618B1036A0BB9FFF7F7
:10472C007FFAA369A360A3891A0701D5236943B94A
:10473C002146284600F02AF818B14FF0FF373846CA
:10474C00F8BD23682269F6B2981A6369374683422A
:10475C0005DC21462846FFF7B3FF0028EDD1A368FE
:10476C00013BA36023685A1C22601E706269431CC3
:10477C009A4204D0A389DB07E1D50A2EDFD121466A
:10478C002846FFF79DFF0028D9D0D6E738B5294B2E
:10479C00054618680C4618B1036A0BB9FFF740FAC6
:1047AC00B4F90C30190722D4DA0607D409222A608E
:1047BC0043F040034FF0FF30A38133E0580712D58C
:1047CC00616B41B104F14403994202D02846FFF7D2
:1047DC002FFB00236363A38923F02403A38100230D
:1047EC00636023692360A38943F00803A3812369D1
:1047FC004BB9A38903F42073B3F5007F03D0214692
:10480C00284600F05CF8B4F90C3013F001020AD021
:10481C000022A26062695242A261226942B913F07D
:10482C008000C5D138BD990758BF6269A260F4E712
:10483C000020F7E71800002038B50023054D04468A
:10484C0008462B60FCF7EEFD431C02D12B6803B12C
:10485C00236038BD20030020034610B5C9B20244C2
:10486C009342184601D1002003E0047801338C42B6
:10487C00F6D110BD70B50C46B1F90E1015460029D5
:10488C001E4696B00CDAA389002113F0800F14BFDA
:10489C0040234FF48063002031602B6016B070BD54
:1048AC006A4600F049F80028EDDB019901F47041EB
:1048BC00A1F50053594259414FF48063EBE78B89C2
:1048CC00F7B59D0706460C4607D504F14703236050
:1048DC0023610123636103B0F0BD6A4601ABFFF7AE
:1048EC00C9FF009F054639463046FFF70BFB48B918
:1048FC00B4F90C309A05EED423F0030343F0020311
:10490C00A381E2E7A389C4E9040743F08003A381F0
:10491C00019B20605BB13046B4F90E1000F01EF81C
:10492C0028B1A38923F0030343F00103A381A389D6
:10493C001D43A581CFE7000038B50023064D044682
:10494C00084611462B60FCF747FD431C02D12B682F
:10495C0003B1236038BD00BF2003002038B500230D
:10496C00054D044608462B60FCF745FD431C02D15F
:10497C002B6803B1236038BD20030020F8B500BFBD
:10498C00F8BC08BC9E467047F8B500BFF8BC08BC24
:04499C009E4670477C
:1049A000256400000A0D7C20312E20536574746943
:1049B0006E67206D6F6320636875616E206465208B
:1049C000646F206C756F6E6720285072657373205A
:1049D0002231222064652063686F6E293A200A0D17
:1049E000000000007C202D2D2D2D2D2D2D2D2D2D69
:1049F0002D2D2D2D2D2D2D2D2D2D2D2D2D2D2D2DE7
:104A00002D2D2D2D2D2D2D2D2D2D2D2D2D2D2D2DD6
:104A10002D2D2D2D2D2D2D2D2D2D2D2D2D2D0A0D09
:104A2000000000007C20322E20446F206C756F6ED9
:104A300067206769612074726920746875632074E7
:104A4000652028507265737320223222206465200D
:104A500063686F6E293A200A0D0000007C20332E17
:104A6000204869656E2074686920676961207472E6
:104A700069206D6F63206461207365742028507213
:104A8000657373202233222064652063686F6E296A
:104A90003A200A0D000000004E68617020676961CD
:104AA00020747269204449454E20415020284144D9
:104AB00043293A200A0D00004E6861702067696141
:104AC0002074726920444F4E47204449454E2028A7
:104AD000414443293A200A0D000000004E686170ED
:104AE000206769612074726920434F4E47205355F7
:104AF00041542028414443293A200A0D0000000077
:104B00004E686170206769612074726920434F4E5E
:104B100047205355415420504B2028414443293AC3
:104B2000200A0D004E686170206769612074726907
:104B300020434F4E47205355415420545020284184
:104B40004443293A200A0D004E686170206769616C
:104B500020747269204449454E2041502028564F08
:104B60004C54293A200A0D004E6861702067696133
:104B70002074726920444F4E47204449454E2028F6
:104B8000414D5045293A200A0D0000004E686170E1
:104B9000206769612074726920434F4E4720535546
:104BA00041542028574154293A200A0D00000000A2
:104BB0004E686170206769612074726920434F4EAE
:104BC00047205355415420504B2028564152293AF2
:104BD000200A0D004E686170206769612074726957
:104BE00020434F4E472053554154205450202856BF
:104BF00041293A200A0D00000A0D4461206E6861C7
:104C000070204449454E20415020284144432D56B0
:104C1000414C5545292020202020203A20256C6435
:104C2000202D20256C6400000A0D4461206E68610F
:104C30007020444F4E47204449454E20284144436C
:104C40002D56414C554529202020203A20256C64C2
:104C5000202D20256C6400000A0D4461206E6861DF
:104C60007020434F4E472053554154202841444320
:104C70002D56414C554529202020203A20256C6492
:104C8000202D20256C6400000A0D4461206E6861AF
:104C90007020434F4E47205355415420504B2028FD
:104CA0004144432D56414C554529203A20256C64FA
:104CB000202D20256C6400000A0D4461206E68617F
:104CC0007020434F4E4720535541542054502028C4
:104CD0004144432D56414C554529203A20256C64CA
:104CE000202D20256C6400000A0D0000476961201A
:104CF00054726920444F4E47204449454E20506825
:104D0000617365204120203A20256C64200A0D0043
:104D100047696120547269204449454E2041502022
:104D200050686173652041202020203A20256C6462
:104D3000200A0D004769612054726920434F4E4795
:104D40002053554154205068617365204120203A1A
:104D500020256C64200A0D00476961205472692087
:104D6000434F4E472053554154205068616E204BAD
:104D700068616E672050686173652041203A202584
:104D80006C64200A0D00000047696120547269209C
:104D9000434F4E47205355415420546F616E20506D
:104DA00068616E205068617365204120203A20259B
:104DB0006C64200A0D00000047696120547269206C
:104DC000444F4E47204449454E205068617365204A
:104DD0004220203A20256C64200A0D00476961209A
:104DE000547269204449454E2041502050686173F7
:104DF000652042202020203A20256C64200A0D00E6
:104E00004769612054726920434F4E4720535541F2
:104E100054205068617365204220203A20256C643C
:104E2000200A0D004769612054726920434F4E47A4
:104E30002053554154205068616E204B68616E6765
:104E40002050686173652042203A20256C64200A56
:104E50000D0000004769612054726920434F4E479E
:104E6000205355415420546F616E205068616E206C
:104E70005068617365204220203A20256C64200A26
:104E80000D0000004769612054726920444F4E476D
:104E9000204449454E205068617365204320203AE4
:104EA00020256C64200A0D00476961205472692036
:104EB0004449454E2041502050686173652043208D
:104EC0002020203A20256C64200A0D0047696120CB
:104ED00054726920434F4E47205355415420506827
:104EE000617365204320203A20256C64200A0D0060
:104EF0004769612054726920434F4E472053554102
:104F000054205068616E204B68616E672050686164
:104F100073652043203A20256C64200A0D000000B0
:104F20004769612054726920434F4E4720535541D1
:104F30005420546F616E205068616E205068617318
:104F400065204320203A20256C64200A0D000000D3
:104F5000476961205472692054414E20534F2020EC
:104F6000202020203A20256C64200A0D000000003B
:104F70000000000000000000010203040607080909
:104F800000000000010203040203040506070809EB
:104F90000A0B0C0D0E0F1010010200202020202003
:104FA00020202020282828282820202020202020D9
:104FB00020202020202020202020208810101010C9
:104FC000101010101010101010101004040404041D
:104FD0000404040404101010101010104141414149
:104FE0004141010101010101010101010101010131
:104FF0000101010101011010101010104242424243
:105000004242020202020202020202020202020200
:105010000202020202021010101020000000000024
:105020000000000000000000000000000000000080
:105030000000000000000000000000000000000070
:105040000000000000000000000000000000000060
:105050000000000000000000000000000000000050
:105060000000000000000000000000000000000040
:105070000000000000000000000000000000000030
:105080000000000000000000000000000000000020
:105090000000000000000000000000232D302B2045
:1050A00000686C4C00656667454647003031323316
:1050B0003435363738394142434445460030313281
:1050C0003334353637383961626364656600000011
:0850D0007CB0FF7F010000002D
:0450D800310100089A
:0450DC000D010008BA
:1050E00000127A0010000000010000000000000023
:1050F00003000000E40100201C000020000000006C
:10510000E40100204C020020B40200200000000056
:10511000000000000000000000000000000000008F
:10512000000000000000000000000000000000007F
:10513000000000000000000000000000000000006F
:08514000000000000000000067
:04000005080014A932
:00000001FF
